{
  "_format": "hh-sol-artifact-1",
  "contractName": "Counter",
  "sourceName": "contracts/Counter.sol",
  "abi": [
    {
      "inputs": [
        {
          "internalType": "string",
          "name": "_name",
          "type": "string"
        }
      ],
      "stateMutability": "nonpayable",
      "type": "constructor"
    },
    {
      "inputs": [],
      "name": "count",
      "outputs": [
        {
          "internalType": "uint256",
          "name": "",
          "type": "uint256"
        }
      ],
      "stateMutability": "view",
      "type": "function"
    },
    {
      "inputs": [],
      "name": "decrement",
      "outputs": [],
      "stateMutability": "nonpayable",
      "type": "function"
    },
    {
      "inputs": [],
      "name": "getCount",
      "outputs": [
        {
          "internalType": "uint256",
          "name": "",
          "type": "uint256"
        }
      ],
      "stateMutability": "view",
      "type": "function"
    },
    {
      "inputs": [],
      "name": "getName",
      "outputs": [
        {
          "internalType": "string",
          "name": "",
          "type": "string"
        }
      ],
      "stateMutability": "view",
      "type": "function"
    },
    {
      "inputs": [],
      "name": "increment",
      "outputs": [],
      "stateMutability": "nonpayable",
      "type": "function"
    },
    {
      "inputs": [],
      "name": "name",
      "outputs": [
        {
          "internalType": "string",
          "name": "",
          "type": "string"
        }
      ],
      "stateMutability": "view",
      "type": "function"
    },
    {
      "inputs": [],
      "name": "reset",
      "outputs": [],
      "stateMutability": "nonpayable",
      "type": "function"
    }
  ],
  "bytecode": "0x608060405234801561001057600080fd5b506040516109b33803806109b3833981810160405281019061003291906101c4565b8060019081610041919061042e565b506000808190555050610500565b6000604051905090565b600080fd5b600080fd5b600080fd5b600080fd5b6000601f19601f8301169050919050565b7f4e487b7100000000000000000000000000000000000000000000000000000000600052604160045260246000fd5b6100b68261006d565b810181811067ffffffffffffffff821117156100d5576100d461007e565b5b80604052505050565b60006100e861004f565b90506100f482826100ad565b919050565b600067ffffffffffffffff8211156101145761011361007e565b5b61011d8261006d565b9050602081019050919050565b60005b8381101561014857808201518184015260208101905061012d565b60008484015250505050565b6000610167610162846100f9565b6100de565b90508281526020810184848401111561018357610182610068565b5b61018e84828561012a565b509392505050565b600082601f8301126101ab576101aa610063565b5b81516101bb848260208601610154565b91505092915050565b6000602082840312156101da576101d9610059565b5b600082015167ffffffffffffffff8111156101f8576101f761005e565b5b61020484828501610196565b91505092915050565b600081519050919050565b7f4e487b7100000000000000000000000000000000000000000000000000000000600052602260045260246000fd5b6000600282049050600182168061025f57607f821691505b60208210810361027257610271610218565b5b50919050565b60008190508160005260206000209050919050565b60006020601f8301049050919050565b600082821b905092915050565b6000600883026102da7fffffffffffffffffffffffffffffffffffffffffffffffffffffffffffffffff8261029d565b6102e4868361029d565b95508019841693508086168417925050509392505050565b6000819050919050565b6000819050919050565b600061032b610326610321846102fc565b610306565b6102fc565b9050919050565b6000819050919050565b61034583610310565b61035961035182610332565b8484546102aa565b825550505050565b600090565b61036e610361565b61037981848461033c565b505050565b5b8181101561039d57610392600082610366565b60018101905061037f565b5050565b601f8211156103e2576103b381610278565b6103bc8461028d565b810160208510156103cb578190505b6103df6103d78561028d565b83018261037e565b50505b505050565b600082821c905092915050565b6000610405600019846008026103e7565b1980831691505092915050565b600061041e83836103f4565b9150826002028217905092915050565b6104378261020d565b67ffffffffffffffff8111156104505761044f61007e565b5b61045a8254610247565b6104658282856103a1565b600060209050601f8311600181146104985760008415610486578287015190505b6104908582610412565b8655506104f8565b601f1984166104a686610278565b60005b828110156104ce578489015182556001820191506020850194506020810190506104a9565b868310156104eb57848901516104e7601f8916826103f4565b8355505b6001600288020188555050505b505050505050565b6104a48061050f6000396000f3fe608060405234801561001057600080fd5b506004361061007d5760003560e01c80632baeceb71161005b5780632baeceb7146100dc578063a87d942c146100e6578063d09de08a14610104578063d826f88f1461010e5761007d565b806306661abd1461008257806306fdde03146100a057806317d7de7c146100be575b600080fd5b61008a610118565b60405161009791906102aa565b60405180910390f35b6100a861011e565b6040516100b59190610355565b60405180910390f35b6100c66101ac565b6040516100d39190610355565b60405180910390f35b6100e461023e565b005b6100ee610264565b6040516100fb91906102aa565b60405180910390f35b61010c61026d565b005b610116610288565b005b60005481565b6001805461012b906103a6565b80601f0160208091040260200160405190810160405280929190818152602001828054610157906103a6565b80156101a45780601f10610179576101008083540402835291602001916101a4565b820191906000526020600020905b81548152906001019060200180831161018757829003601f168201915b505050505081565b6060600180546101bb906103a6565b80601f01602080910402602001604051908101604052809291908181526020018280546101e7906103a6565b80156102345780601f1061020957610100808354040283529160200191610234565b820191906000526020600020905b81548152906001019060200180831161021757829003601f168201915b5050505050905090565b60008054111561026257600160008082825461025a9190610406565b925050819055505b565b60008054905090565b600160008082825461027f919061043a565b92505081905550565b60008081905550565b6000819050919050565b6102a481610291565b82525050565b60006020820190506102bf600083018461029b565b92915050565b600081519050919050565b600082825260208201905092915050565b60005b838110156102ff5780820151818401526020810190506102e4565b60008484015250505050565b6000601f19601f8301169050919050565b6000610327826102c5565b61033181856102d0565b93506103418185602086016102e1565b61034a8161030b565b840191505092915050565b6000602082019050818103600083015261036f818461031c565b905092915050565b7f4e487b7100000000000000000000000000000000000000000000000000000000600052602260045260246000fd5b600060028204905060018216806103be57607f821691505b6020821081036103d1576103d0610377565b5b50919050565b7f4e487b7100000000000000000000000000000000000000000000000000000000600052601160045260246000fd5b600061041182610291565b915061041c83610291565b9250828203905081811115610434576104336103d7565b5b92915050565b600061044582610291565b915061045083610291565b9250828201905080821115610468576104676103d7565b5b9291505056fea2646970667358221220f51c076d514a4a1f5f7c6a30fea0bfaeb88d97065463d09369bc29702371512c64736f6c634300081c0033",
  "linkReferences": {},
  "deployedLinkReferences": {}
}